:020000040800F2
:10000000680600208901000891010008930100089A
:100010009501000897010008990100080000000000
:100020000000000000000000000000009B0100082C
:100030009D010008000000009F0100081D0300084A
:10004000A3010008A3010008A3010008A301000800
:10005000A3010008A3010008A3010008A3010008F0
:10006000A3010008A3010008A3010008A3010008E0
:10007000A3010008A3010008A3010008A3010008D0
:10008000A3010008A3010008A3010008A3010008C0
:10009000A3010008A3010008A3010008A3010008B0
:1000A000A3010008A3010008A3010008A3010008A0
:1000B000A3010008A3010008A3010008A301000890
:1000C000A3010008A3010008A3010008A301000880
:1000D000A3010008A3010008A3010008A301000870
:1000E000A3010008A3010008A301000800F002F822
:1000F00000F03AF80AA090E8000C82448344AAF188
:100100000107DA4501D100F02FF8AFF2090EBAE885
:100110000F0013F0010F18BFFB1A43F0010318473B
:10012000DC020000FC020000103A24BF78C878C14D
:10013000FAD8520724BF30C830C144BF04680C60ED
:10014000704700000023002400250026103A28BF35
:1001500078C1FBD8520728BF30C148BF0B60704739
:100160001FB51FBD10B510BD00F031F81146FFF7E7
:10017000F7FF00F02BF900F04FF803B4FFF7F2FFA0
:1001800003BC00F057F800000948804709480047C1
:10019000FEE7FEE7FEE7FEE7FEE7FEE7FEE7FEE737
:1001A000FEE7FEE704480549054A064B7047000094
:1001B00059030008ED0000086800002068060020D0
:1001C000680200206802002070477047704775463B
:1001D00000F02CF8AE4605006946534620F00700B3
:1001E000854618B020B5FFF7DDFFBDE820404FF091
:1001F00000064FF000074FF000084FF0000B21F011
:100200000701AC46ACE8C009ACE8C009ACE8C009DD
:10021000ACE8C0098D46704710B50446AFF30080C6
:100220002046BDE81040FFF7A8BF00000048704717
:100230000400002001491820ABBEFEE726000200A2
:10024000704700000948816941F008018161084850
:10025000016821F480110160016841F4001101601E
:10026000016821F440010160704700000010024065
:10027000000C01400CB50022264800920192016852
:1002800041F4803101604FF4A063016801F4003152
:1002900001910099491C0091019911B90099994265
:1002A000F3D10168890333D5012101911A490A6804
:1002B00042F010020A600A6822F003020A600A682B
:1002C00042F002020A604168416041684160416851
:1002D00041F480614160416821F47C1141604168D2
:1002E00041F4E8114160016841F0807101600168EA
:1002F0008901FCD5416821F003014160416841F06A
:10030000020141604168C1F381010229FAD10CBDAB
:1003100001920CBD00100240002002400348016819
:10032000002902D00168491E0160704700000020CA
:100330004FF0E020416901F07F4141610549416191
:10034000816901F07F418161016941F0070101612B
:1003500070470000881901000F4810B5016841F08E
:100360000101016041680D4A1140416001680C4A79
:1003700011400160016821F480210160416821F48D
:10038000FE0141604FF41F018160FFF773FF0549D3
:100390004FF00060086010BD001002400000FFF840
:1003A000FFFFF6FE08ED00E04FF0E0218A6902F061
:1003B0007F428A61034A8A6103490860086800280D
:1003C000FCD170478819010000000020FFF73AFFB8
:1003D000FFF7AEFF084B4FF47A74186840F0200026
:1003E00018602046FFF7E0FF186840F4001119601C
:1003F0002046FFF7D9FFF0E7100C01401C0400086D
:10040000000000200400000028010008200400086B
:100410000400002064060000440100080000000001
:04000005080000ED02
:00000001FF
